:020000040000FA
:040000008031132810
:100008007E1480318B1D09280A2811280B1C0D2805
:100018000E2811288531DB2580317E1009008031BA
:10002800152886310F268031E600FC012030840037
:10003800003085003A308531FB258031A0308400BE
:100048000030850048308531FB2580312030840020
:100058000130850018308531FB258031A0308400BF
:100068000130850040308531FB2580317E1020002D
:100078008531842D2000DD0072305D06031D452882
:1000880046284B28DA01DA0ADB01DC0172286730DE
:100098005D06031D502851285628DA01DB01DB0ACA
:1000A800DC01722862305D06031D5B285C2861282C
:1000B800DA01DB01DC01DC0A7228DA01DB01DC0190
:1000C8007228DE01DF0182280830DE000030DF0000
:1000D80082281030DE000030DF0082287208003AE3
:1000E8000319772865287108013A03196528033A26
:1000F80003196828013A03196D2865285F08E1008B
:100108005E08E000C72820005E086002F5005F086E
:10011800613BF60074087602031D94287308750283
:10012800031897289828B4285A03FF3AF50060085E
:10013800383E86008701750881005B03FF3AF500A9
:100148006008203E86008701750881005C03FF3A3D
:10015800F5006008D03E8600870175088100C32835
:100168006008383E8600870181016008203E8600CD
:10017800870181016008D03E860087018101013036
:10018800E0070030E13D5E08083EF50000305F3DC5
:10019800F6006108803AF7007608803A7702031D76
:1001A800D72875086002031CDA28DB28872808008E
:1001B800FF30F5000330F60000308431B12480317F
:1001C8007108FA007208FB00FA35FB0DFA35FB0DD1
:1001D800FA35FB0D7A08F7007B08F8008331ED2328
:1001E800803176082000D9007508D800FF30F50066
:1001F8000330F60001308431B12480317108FA00EF
:100208007208FB00FA35FB0DFA35FB0DFA35FB0DCC
:100218007A08F7007B08F8008331ED2380317608EF
:100228002000D7007508D600FF30F5000330F6002F
:1002380002308431B12480317108FA007208FB0061
:10024800FA35FB0DFA35FB0DFA35FB0D7A08F70088
:100258007B08F8008331ED23803176082000D50033
:100268007508D4000130F1000030F2005908F4009C
:100278005808F300723080313E2080310230F1009E
:100288000030F20020005708F4005608F3006730E9
:1002980080313E2080310330F1000030F200200030
:1002A8005508F4005408F300623080313E20803154
:1002B80084312A2480316830FA00E430890B6229BD
:1002C800FA0B6229003220005208530403196D29E1
:1002D8006E29DC28D201D30108002000DF0072302B
:1002E8005F06031D782979297E29DA01DA0ADB01FC
:1002F800DC01A52967305F06031D83298429892924
:10030800DA01DB01DB0ADC01A52962305F06031D87
:100318008E298F299429DA01DB01DC01DC0AA52961
:10032800DA01DB01DC01A529DD01DE01B529083090
:10033800DD000030DE00B5291030DD000030DE00C1
:10034800B5297208003A0319AA2998297108013AAF
:1003580003199829033A03199B29013A0319A0297B
:1003680098295E08E1005D08E000DA2920005A03B8
:10037800FF3AF3006008383E860087017308810061
:100388005B03FF3AF3006008203E8600870173088C
:1003980081005C03FF3AF3006008D03E86008701C5
:1003A800730881000130E0070030E13D5D08083E38
:1003B800F30000305E3DF4006108803AF5007408EF
:1003C800803A7502031DEA2973086002031CED29AF
:1003D800EE29BA290800220090018F018C018D01B5
:1003E8008E010F3021009000FF308C00F9308D0015
:1003F800D7308E00F8308F00F83023008F00C430DB
:100408008E0039308D000730900037308C00240082
:100418008F0190018D018C018E0121009517250017
:1004280090018C018D018E018F01FF3026008C0018
:10043800FF308D00FF308E00FF308F0007309000B6
:10044800FF3027008C00FF308D00FF308E00FF301A
:100458008F000F3090001910181017141030F10089
:100468000630F2008631012681318B1514303C00AC
:10047800A10006303D0099001030A30003303C0075
:10048800A8000E303D009A001130A50013303C0042
:10049800A0000800FF30F5000330F6000130843179
:1004A800B12482317108FA007208FB00FA35FB0D9D
:1004B800FA35FB0DFA35FB0D7A08F7007B08F800D2
:1004C8008331ED23823176082000D7007508D600E5
:1004D8000130F1000030F2005708F4005608F3002C
:1004E800723080313E2082310230F1000030F2005B
:1004F80020005708F4005608F300673080313E208A
:1005080082310330F1000030F20020005708F40077
:100518005608F300623080313E20823184312A242B
:1005280082316830FA00E430890B982AFA0B982A4D
:1005380000322000520853040319A32AA42A4E2A81
:10054800D201D3010800FF30F5000330F600003077
:100558008431B12482317108FA007208FB00FA353F
:10056800FB0DFA35FB0DFA35FB0D7A08F7007B0811
:10057800F8008331ED23823176082000D900750810
:10058800D8000130F1000030F2005908F400580892
:10059800F300723080313E2082310230F1000030A9
:1005A800F20020005908F4005808F3006730803141
:1005B8003E2082310330F1000030F200200059085B
:1005C800F4005808F300623080313E2082318431D3
:1005D8002A2482316830FA00E430890BF12AFA0BB8
:1005E800F12A00322000520853040319FC2AFD2A7C
:1005F800A72AD201D3010800FF30F5000330F60026
:1006080002308431B12483317108FA007208FB008A
:10061800FA35FB0DFA35FB0DFA35FB0D7A08F700B4
:100628007B08F8008331ED23833176082000D5005C
:100638007508D4000130F1000030F2005508F400CC
:100648005408F300723080313E2083310230F100CB
:100658000030F20020005508F4005408F300673019
:1006680080313E2083310330F1000030F200200059
:100678005508F4005408F300623080313E2083317D
:1006880084312A2483316830FA00E430890B4A2BFC
:10069800FA0B4A2B00322000520853040319552B39
:1006A800562B002BD201D3010800F4002400951A20
:1006B8005E2B5F2BA72B7408F100F201F135F20DC8
:1006C800F135F20D0830710784008630723D8500DF
:1006D800000894007408F100F201F135F20DF135CB
:1006E800F20D0730710784008630723D85000008DE
:1006F800950096017408F100F201F135F20DF1351B
:10070800F20D0930710784008630723D85000008BB
:1007180092007408F100F201F135F20DF135F20D95
:100728000A30710784008630723D85000008F300A6
:10073800F30DF30DF30D21000E087306F739730658
:100748008E00240095160800C92B85319525833124
:10075800EC2B84315D248331EC2B84318B24833161
:10076800EC2B8031DC208331EC2B8231A7228331C2
:10077800EC2B82314E228331EC2B833100238331E1
:10078800EC2B8531A5258331EC2B7C082000E20079
:10079800E3016308003A0319D22BA92B6208003A37
:1007A8000319A92B013A0319AD2B033A0319B12BED
:1007B800013A0319B52B073A0319B92B013A031962
:1007C800BD2B033A0319C12B013A0319C52BA92BD9
:1007D80008002000DB01DC01750876040319F52BFD
:1007E800F62B252CDA01DA0A022C0130F535F60D44
:1007F800890BFA2B0130F9007908DA07F61F052C66
:10080800062CF92B0130DB35DC0D890B072C76081B
:100818007802031D112C75087702031C142C152C63
:100828001A2C7508F7027608F83B5B140130F63687
:10083800F50C890B1B2C0130DA02031D242C252C06
:10084800062C5C08F6005B08F5000800F201F301CD
:100858007208203E86008701010824009100141CBC
:10086800362C372C332C7208383E86008701010855
:100878009100141C402C412C3D2C7208D03E86005F
:10088800870101089100141C4A2C4B2C472C01307D
:10089800F2070030F33D7308803AF10080307102AE
:1008A800031D582C18307202031C5B2C5C2C2C2C5A
:1008B80008008431E524843184312A2484310530C8
:1008C800F7000F30F600F130890B682CF60B682C16
:1008D800F70B682C00008431FE24843184312A24EB
:1008E80084310530F7000F30F600F130890B7A2C8F
:1008F800F60B7A2CF70B7A2C0000200052085304D0
:100908000319872C882C5D2CD201D301080084316F
:10091800E524843184312A2484316830F600E430B7
:10092800890B942CF60B942C00328431FE248431EC
:1009380084312A2484316830F600E430890BA22CF3
:10094800F60BA22C00322000520853040319AD2CD8
:10095800AE2C8B2CD201D3010800F4007408F300EC
:10096800F30DF30D21001D087306833973069D00EE
:100978001D140D30890BBE2C000021009D149D18FC
:10098800C62CC72CC32C1C08F2001B08F100080059
:1009980000308B1B0130F3008B137108230091008A
:1009A800720892001513151400000000730C031C44
:1009B8008B1303188B1723001408F2001308F10097
:1009C80008000130F1000030F200723081317121ED
:1009D80084310230F1000030F2006730813171213A
:1009E80084310330F1000030F2006230813171212E
:1009F800843108000130F1000030F20064308131A8
:100A0800712184310230F1000030F200643081310C
:100A1800712184310330F1000030F20064308131FB
:100A28007121843108008531472585318131EF21D5
:100A380085318531C425853186310B26853185314F
:100A4800EC25853185315C2585318531D025853189
:100A58008531E425853108007130F1000530F20058
:100A68008631012685318431FE2485319030F100AC
:100A78001F30F2008431CC24853171080739F60023
:100A88007608FC00080013303C00A0001430A100D8
:100A980010303D00A3001130A5002400940103305C
:100AA80095000130920021008E1124009512080053
:100AB80001303E00A5000E30A6001030A70011300E
:100AC800A800A9010530AA001030AB000830AC001E
:100AD8002030AD008030A40008007C0820006606A5
:100AE800031D772D782D7B2DFC01FC0A7F2D01300D
:100AF800F0007008FC070130D2000030D300080075
:100B08008531172585310030833159238531853169
:100B1800302585318B178531F42585318F2D80312E
:100B280013288431E524853184312A248531200035
:100B3800520853040319A12DA22D9B2DD201D301D4
:100B480008008431E524853184312A248531200048
:100B5800520853040319B12DB22DAB2DD201D30184
:100B680008002000640865040319BB2DBC2DC12DA5
:100B780065088A0064080A008531270019100800F2
:100B880070302100990098012200960121001A1F57
:100B9800CE2DCF2DCA2D080080302C0099000230B0
:100BA800980040309700CF3025009E0508002700A8
:100BB800191CDF2DE02DE32D8531B5258531080081
:100BC800043020009B009A01911004309C0008001A
:100BD80021009E019F019B019C0101309D0008009E
:100BE8007C0820008F008331A82385310800640029
:100BF80080010131890BFC2D003472082000E500CA
:100C08007108E4000800033400340134003416305D
:0A0C180021009700080008340800CE
:020000040001F9
:04000E00E43FFF3F8D
:00000001FF
