:020000040000FA
:0400000080312628FD
:100008007E1480318B1D09280A2812280B1C0D2804
:100018000E2812288031EA20803124280B1F152849
:10002800162824282100111F1A281B2824282000FC
:10003800111F1F28202824288031BF208031242820
:100048007E100900803128287E10200080316E281B
:10005800220090018F018C018D018E010F3021004B
:100068009000FF308C00F8308D00FF308E00FF309C
:100078008F00FF3023008F00FC308E003F308D0052
:10008800073090003F308C0024008F0190018D01D3
:100098008C018E0121009517250090018C018D019E
:1000A8008E018F01FF3026008C00FF308D00FF305D
:1000B8008E00FF308F0007309000FF3027008C0043
:1000C800FF308D00FF308E00FF308F000F30900022
:1000D8008B1508008031CD2080318B170B178031AC
:1000E800AF20803100308031982080317108F500D0
:1000F8007008F40000307502CD3003197402031C37
:10010800862887288A2822000D1473280030750253
:10011800CD300319740203189228932873282200FB
:100128000D10732880312628F3007308F200F20DB1
:10013800F20D21001D087206833972069D001D14F8
:1001480021009D149D18A928AA28A6281C08F1009A
:100158001B08F000080021009E019F019B019C01E3
:1001680001309D001117EB30F0000030F1008031B4
:10017800E120803108002000111376087704031964
:10018800C628C728CC2877088A0076080A00803154
:10019800080080312C2080318031DA208031803194
:1001A800E62080318031AF208031080038302100CE
:1001B800990098012200960108007108F70070085C
:1001C800F600080016302100970008000800080013
:020000040001F9
:04000E00E43FFF3E8E
:00000001FF
