:020000040000FA
:040000008031132810
:100008007E1480318B1D09280A2811280B1C0D2805
:100018000E2811288031F02080317E1009008031AF
:100028001528FA01FB017E10200080311B28803141
:10003800D02080318B170B178031DD2080310030C4
:100048008031B92080317108F5007008F400003063
:100058007502CD3003197402031C3328342837285D
:1000680022000D14422800307502CD3003197402A5
:1000780003183F284028422822000D100130803103
:10008800B92080317108F7007008F6007608770407
:1000980003194F285028532822008D145B2876080E
:1000A8007704031D582859285B2822008D10023038
:1000B8008031B92080317108F9007008F80078089B
:1000C80079040319682869286C2822000D1520284E
:1000D80078087904031D71287228202822000D1140
:1000E800202880311328220090018F018C018D0176
:1000F8008E010F3021009000FF308C00F8308D0009
:10010800FF308E00FF308F00FF3023008F00FC305F
:100118008E003F308D00073090003F308C00240067
:100128008F0190018D018C018E012100951725000A
:1001380090018C018D018E018F01FF3026008C000B
:10014800FF308D00FF308E00FF308F0007309000A9
:10015800FF3027008C00FF308D00FF308E00FF300D
:100168008F000F3090008B150800F3007308F20021
:10017800F20DF20D21001D087206833972069D00EA
:100188001D1421009D149D18CA28CB28C7281C08B7
:10019800F1001B08F00008008031772080318031A1
:1001A800E52080318031EC2080318031DD208031C4
:1001B800080021009E019F019B019C0101309D00C8
:1001C80008003830210099009801220096010800A3
:0A01D800163021009700080008000F
:020000040001F9
:04000E00E43FFF3E8E
:00000001FF
